:1000000001308A000D290000FF00030E8301A100CA
:100010000A08A0008A010408A2007708A300780853
:10002000A4007908A5007A08A600831383128C30F7
:100030008400001C1D280C1834288C308400801C7F
:1000400023288C183728220884002308F700240866
:10005000F8002508F9002608FA0020088A00210E79
:100060008300FF0E7F0E09008A110A123A288A11B6
:100070000A1250286400B20A320B4C28B201B308AD
:1000800003194428003045280130B300B308031D8C
:100090004B2887114C2887150C108A110A12232827
:1000A0006400A708031D5728A80803197628B50877
:1000B000031D5D28B6080319622835080319B60325
:1000C000B503752827080319A803A703B601443010
:1000D000B500B708031D7228081508160130B700CF
:1000E000AE0A752808110812B7018828A9018316DD
:1000F0008C1009108312091083168910831289103D
:10010000831609118312091107108710071187112F
:100110008C108A110A1223283A30840083130008B5
:100120000319A0280130F800F701F70B9528F80B08
:1001300094284A30F700F70B9B289E28800B9228C2
:1001400008000710871007118814881583160614F5
:1001500083120618AD280130AA0083168614831274
:100160008618B4280130AB002A0BB728BC282B0B0B
:10017000BA28BC28851EE4282A0BBF28C128851E62
:10018000D0286400081408150230BA008C20081129
:100190000230BA008C208316061483120618AA01B6
:1001A0002B0BD328D528851EE32808140816023007
:1001B000BA008C2008120230BA008C2083168614F4
:1001C00083128618AB01B42808000310270DB00075
:1001D000280DB100B008031DF028B1080319072944
:1001E000640030080319B103B00308150230BA00E7
:1001F0008C2008110230BA008C2008140816023036
:10020000BA008C2008120230BA008C20EA28A9011A
:100210000130AF008A110A12FC2903081F3983003C
:10022000A801A701A901AA01AB01AC01AD01AE0172
:10023000AF01B101B001B201B301B401B601443064
:10024000B500B701B80183161F149F141F159F1125
:1002500007309C0083137830F80006388312920030
:10026000FF3083169200B5308312900083160C1075
:100270008C1083120B1283160C1107309C0005089A
:1002800085000230F700F70B4329462900001C08BF
:1002900083120D1383169D01FF308500C730860041
:1002A000F03087000030880009108910091109100A
:1002B000831209108316891083128910831609117D
:1002C0008312091108100710871007118711C03019
:1002D0008B04A12008146400051C7729A801323082
:1002E000A70083160910831209140130A900851C88
:1002F0008229A8016430A70083168910831289140B
:100300000130A900051D8D29A8019630A70083168C
:100310000911831209150130A900851DD02938085B
:10032000033C0319B8013808023C031DA929023017
:10033000A8005830A7000330B80007108710071531
:100340000230B900C830BA008C20B90BA2290130A4
:10035000A900380BBC290130A8009030A70002305A
:10036000B800071087140711B900C830BA008C20F4
:10037000B90BB5290130A900B808031DD029A8017F
:10038000C930A7000130B8000714871007110230E8
:10039000B900C830BA008C20B90BC9290130A900B6
:1003A000051EE729290BD529D7292F0BE7292C0B67
:1003B000E72983168C100C148312AC010230B900AB
:1003C000C830BA008C20B90BE0290130B400051EFA
:1003D000532A290BEC29EE292F0B532AAC08031DB5
:1003E000522A831606158312061D2F2AB408031DF0
:1003F0001C2A0130AD00E528270DB900280DBA00F0
:10040000B90DBA0DFC30B90504303902A7003A081D
:10041000A8000030031C0130A802831609108312C3
:10042000091083168910831289108316091183120B
:1004300009110710871007110130A900081488104E
:10044000881183168C140C1083128715AC000230AF
:10045000B900C830BA008C20B90B292A522A0130C1
:10046000A90008148814881583168C140C108312A4
:100470008715AC00270DB900280DBA00B90DBA0DCB
:10048000FC30B90504303902A7003A08A800003052
:10049000031C0130A8020230B900C830BA008C2019
:1004A000B90B4D2AE729851E6F2A83160C108C1074
:1004B0008312A901A801A701B201B3018316091093
:1004C000831209108316891083128910831609116B
:1004D00083120911A1208711B4018A0100286B2918
:0204E0006300B7
:02400E00363F3B
:00000001FF
;PIC16F877A
;CRC=4B9F  CREATED="14-ago-19 16:49"
