:1000000000308A00AE280000FF00030E8301A1002B
:100010000A08A0008A010408A2007708A300780853
:10002000A4007908A5007A08A6007B08A70083131E
:1000300083120B1E1D288B1836288C308400801CE0
:1000400023288C183928220884002308F700240864
:10005000F8002508F9002608FA002708FB00200808
:100060008A00210E8300FF0E7F0E09008A110A12FA
:100070006F288A110A127828383084008313000808
:10008000031950280130F800F701F70B4528F80B49
:1000900044284A30F700F70B4B284E28800B4228A3
:1000A0000034831606148312061858280130AE0057
:1000B0002E0B6D28081488148815081508160130B1
:1000C000B8003C20081108120130B8003C2083160B
:1000D000061483120618AE015828AE0100345120D0
:1000E000AB0183168C1083128B108A110A122328FD
:1000F000A908031D7E28AA0803199C2829080319AA
:10010000AA03A903B208031D8828B30803198D2880
:1001100032080319B303B2039B28B3010230B200C3
:10012000B608031D9828081508160130B6009B284C
:1001300008110812B601AA28AB0183168C10091009
:1001400083120910831689108312891083160911EE
:10015000831209118C108A110A1223288401831337
:100160001F30830583161F149F141F159F1107301E
:100170009C008312A901AA01AB01AC01AD01AE0143
:10018000AF01B001B1010230B200B301B401B50159
:10019000B6017830F80006389200FF3083169200DE
:1001A0008C10011783120B1683160C1107309C005C
:1001B00005080330F700F70BDB281C0883120D132A
:1001C00083169D01FF308500C1308600FF30870017
:1001D00000308800091089100911091083120910D4
:1001E000831689108312891083160911831209114D
:1001F0000810C0308B04051C1229AB08031D1229FE
:10020000AA011E30A900831609108312091483164F
:100210008910831289108316091183120911081499
:1002200088148815851C2929AB08031D2929AA01D2
:100230003C30A90083160910831209108316891017
:100240008312891483160911831209110814881462
:100250008815051D4029AB08031D4029AA015A3005
:10026000A9008316091083120910831689108312BE
:10027000891083160911831209150814881488152A
:10028000051E4A29AB08031D4A290130AB0083161D
:100290008C148312851E5629AB08031D5629A8010C
:1002A0008B1BA8178B135120A81B8B17FB286300EF
:02400E00323F3F
:00000001FF
;PIC16F877A
