:1000000000308A0007290000FF00030E8301A100D1
:100010000A08A0008A010408A2007708A300780853
:10002000A4007908A5007A08A6007B08A70083131E
:1000300083128C308400001C1F280C1838288C3048
:100040008400801C25288C183B2822088400230863
:10005000F7002408F8002508F9002608FA00270808
:10006000FB0020088A00210E8300FF0E7F0E09008E
:100070008A110A123E288A110A1254286400B30A0F
:10008000330B5028B301B40803194828003049281D
:100090000130B400B408031D4F288711502887157C
:1000A0000C108A110A1225286400A808031D5B2879
:1000B000A90803197A28B608031D6128B70803198F
:1000C000662836080319B703B603792828080319E8
:1000D000A903A803B7012130B600B808031D76288C
:1000E000081508160130B800AF0A7928081108125F
:1000F000B8018C28AA0183168C10091083120910EC
:10010000831689108312891083160911831209112D
:1001100007108710071187118C108A110A122528E1
:100120003B308400831300080319A4280130F80031
:10013000F701F70B9928F80B98284A30F700F70BCE
:100140009F28A228800B96280034071087100711DB
:10015000881488158316061483120618B1280130F6
:10016000AB008316861483128618B8280130AC00C1
:100170002B0BBB28BD282C0BDF282B0BCE286400B3
:10018000081408150230BB00902008110230BB0093
:1001900090208316061483120618AB012C0BDE2860
:1001A000081408160230BB00902008120230BB0071
:1001B00090208316861483128618AC01B828003468
:1001C0002908B2002808B100B108031DEA28B208C6
:1001D00003190129640031080319B203B10308159A
:1001E0000230BB00902008110230BB0090200814A0
:1001F00008160230BB00902008120230BB0090208D
:10020000E428AA010130B0008A110A12F6298401FB
:1002100083131F30830583161F149F141F159F110E
:1002200007309C008312A801A901AA01AB01AC010F
:10023000AD01AE01AF01B001B101B201B301B40132
:10024000B5012130B600B701B801B9017830F80026
:1002500006389200FF3083169200B530831290006A
:1002600083160C108C1083120B1283160C1107309E
:100270009C0005080330F700F70B3C291C0883128B
:100280000D1383169D01FF308500C7308600F030C6
:1002900087000030880009108910091109108312A5
:1002A000091083168910831289108316091183128D
:1002B000091108100710871007118711C0308B042F
:1002C000A5206400051C6D29A901C830A80083166B
:1002D0000910831209140130AA00851C7929013004
:1002E000A9009030A8008316891083128914013068
:1002F000AA00051D85290230A9005830A8008316E0
:100300000911831209150130AA00851DCA2939086F
:10031000033C031D8C29B9013908023C031DA229A5
:100320000930A9006030A8000330B9000710871019
:1003300007150230BA00C830BB009020BA0B9B29C9
:100340000130AA00390BB5290630A9004030A800B9
:100350000230B900071087140711BA00C830BB007B
:100360009020BA0BAE290130AA00B908031DCA2992
:100370000330A9002030A8000130B900071487100D
:1003800007110230BA00C830BB009020BA0BC32955
:100390000130AA00051EE1292A0BCF29D129300BF3
:1003A000E1292D0BE12983168C100C148312AD0169
:1003B0000230BA00C830BB009020BA0BDA290130F5
:1003C000B500051E2A2A2A0BE629E829300B2A2A1D
:1003D000AD08031D2A2A831606158312061D0C2A52
:1003E000B508031DF9290130AE00E0280310A80D5F
:1003F000A90D0130AA0008148810881183168C14E6
:100400000C1083128715AD000230BA00C830BB0053
:100410009020BA0B062A2A2A0130AA000814881450
:10042000881583168C140C1083128715AD000310E9
:10043000280DBA00290DBB0005303A07A8003B087B
:10044000A9000318A90A0230BA00C830BB009020E6
:10045000BA0B252A851E462A83160C108C1083128F
:10046000AA01A901A801B301B401831609108312DE
:1004700009108316891083128910831609118312BB
:100480000911A5208711B5018A010028612963009F
:02400E00363F3B
:00000001FF
;PIC16F877A
