:1000000000308A00E4280000FF00030E8301A100F5
:100010000A08A0008A010408A2007708A300780853
:10002000A4007908A5007A08A6007B08A70083131E
:1000300083120B1E1D288B1836288C308400801CE0
:1000400023288C183928220884002308F700240864
:10005000F8002508F9002608FA002708FB00200808
:100060008A00210E8300FF0E7F0E09008A110A12FA
:100070007D288A110A129328831606148312061803
:1000800043280130AC0083168614831286184A2850
:100090000130AD002C0B4D284F282D0B7C282C0B4C
:1000A000652808148814881508156330F700F70BC5
:1000B00057285A2808116330F700F70B5D2860288D
:1000C0008316061483120618AC012D0B7B28081426
:1000D0008814881508166330F700F70B6D28702810
:1000E00008126330F700F70B7328762883168614FE
:1000F00083128618AD014A2800343C20AB018316D8
:100100008C1009108312091083168910831289102C
:1001100083160911831209110710871007118B101C
:100120008A110A122328A908031D9928AA0803196D
:10013000B728AE08031D9F28AF080319A4282E086E
:100140000319AF03AE03B62829080319AA03A903AC
:10015000AF010F30AE00B008031DB3280815081614
:100160000130B000B62808110812B001CB28AB014D
:1001700083168C108312081083160910831209103D
:1001800083168910831289108316091183120911AD
:100190000710871007118C108A110A122328333098
:1001A0008400831300080319E3280130F800F701E5
:1001B000F70BD828F80BD7284A30F700F70BDE28C2
:1001C000E128800BD5280034840183131F30830578
:1001D00083161F149F141F159F1107309C00831254
:1001E000A901AA01AB01AC01AD010F30AE00AF0116
:1001F000B001B1017830F80006389200FF30831664
:1002000092008C10011783120B1683160C11073005
:100210009C0005080330F700F70B0C291C0883121B
:100220000D1383169D01FF308500C1308600F83024
:100230008700003088000910891009110910831205
:1002400009108316891083128910831609118312ED
:1002500009110810071087100711C0308B04051C06
:100260003B29AB08031D3B29AA010F30A9008316C7
:10027000091083120914851C4729AB08031D47295F
:10028000AA011E30A9008316891083128914051D46
:100290005329AB08031D5329AA012D30A900831649
:1002A000091183120915851D9229AB08031D922996
:1002B0003108033C031D5D29B1013108023C031DD7
:1002C0006F29AA01B430A9000330B10007108710CC
:1002D0000715B200C830B300CF20B20B6A29310B2A
:1002E0008029AA017830A9000230B10007108714D4
:1002F00007110330B200C830B300CF20B20B7B2906
:10030000B108031D9229AA013C30A9000130B100B7
:100310000714871007110330B200C830B300CF2094
:10032000B20B8D29051E9F29AB08031D9F290130A3
:10033000AB0008148814881583168C148312851E4C
:10034000AB29AB08031DAB29A8018B1BA8178B1386
:0A0350003C20A81B8B172F29630027
:02400E00323F3F
:00000001FF
;PIC16F877A
