:1000000001308A0016290000FF00030E8301A100C1
:100010000A08A0008A010408A2007708A300780853
:10002000A4007908A5007A08A600831383128C30F7
:100030008400001C1D280C1834288C308400801C7F
:1000400023288C183728220884002308F700240866
:10005000F8002508F9002608FA0020088A00210E79
:100060008300FF0E7F0E09008A110A123A288A11B6
:100070000A1250286400B20A320B4C28B201B308AD
:1000800003194428003045280130B300B308031D8C
:100090004B2887114C2887150C108A110A12232827
:1000A0006400A708031D5728A80803197628B50877
:1000B000031D5D28B6080319622835080319B60325
:1000C000B503752827080319A803A703B601443010
:1000D000B500B708031D7228081508160130B700CF
:1000E000AE0A752808110812B7018828A9018316DD
:1000F0008C1009108312091083168910831289103D
:10010000831609118312091107108710071187112F
:100110008C108A110A1223283A30840083130008B5
:100120000319A0280130F800F701F70B9528F80B08
:1001300094284A30F700F70B9B289E28800B9228C2
:1001400008000710871007118814881583160614F5
:1001500083120618AD280130AA0083168614831274
:100160008618B4280130AB002A0BB728BC282B0B0B
:10017000BA28BC28851EE4282A0BBF28C128851E62
:10018000D0286400081408150230BA008C20081129
:100190000230BA008C208316061483120618AA01B6
:1001A0002B0BD328D528851EE32808140816023007
:1001B000BA008C2008120230BA008C2083168614F4
:1001C00083128618AB01B42808000310270DB9006C
:1001D000280DBA0002303902B0003A08B1000030F0
:1001E000031C0130B102B008031DF928B10803193E
:1001F0001029640030080319B103B0030815023058
:10020000BA008C2008110230BA008C20081408169D
:100210000230BA008C2008120230BA008C20F32879
:10022000A9010130AF008A110A12052A03081F39FB
:100230008300A801A701A901AA01AB01AC01AD018E
:10024000AE01AF01B101B001B201B301B401B60119
:100250004430B500B701B80183161F149F141F1551
:100260009F1107309C0083137830F8000638831202
:100270009200FF3083169200B530831290008316EF
:100280000C108C1083120B1283160C1107309C007B
:10029000050885000230F700F70B4C294F290000B4
:1002A0001C0883120D1383169D01FF308500C73093
:1002B0008600F0308700003088000910891009118D
:1002C000091083120910831689108312891083166E
:1002D00009118312091108100710871007118711DF
:1002E000C0308B04A12008146400051C8029A801DB
:1002F0003330A70083160910831209140130A900B6
:10030000851C8B29A8016530A700831689108312EC
:1003100089140130A900051D9629A8019730A7006E
:1003200083160911831209150130A900851DD929E9
:100330003808033C0319B8013808023C031DB229F0
:100340000230A8005930A7000330B800071087100A
:1003500007150230B900C830BA008C20B90BAB29A0
:100360000130A900380BC5290130A8009130A70041
:100370000230B800071087140711B900C830BA005E
:100380008C20B90BBE290130A900B808031DD9295A
:10039000A801C930A7000130B80007148710071161
:1003A0000230B900C830BA008C20B90BD229013014
:1003B000A900051EF029290BDE29E0292F0BF029C1
:1003C0002C0BF02983168C100C148312AC01023014
:1003D000B900C830BA008C20B90BE9290130B4004B
:1003E000051E5C2A290BF529F7292F0B5C2AAC087E
:1003F000031D5B2A831606158312061D382AB408CE
:10040000031D252A0130AD00E528270DB900280D70
:10041000BA00B90DBA0DFC30B90504303902A70095
:100420003A08A8000030031C0130A8028316091006
:1004300083120910831689108312891083160911FB
:10044000831209110710871007110130A900081441
:100450008810881183168C140C1083128715AC0039
:100460000230B900C830BA008C20B90B322A5B2A9E
:100470000130A90008148814881583168C140C10F8
:1004800083128715AC00270DB900280DBA00B90DED
:10049000BA0DFC30B90504303902A7003A08A800AB
:1004A0000030031C0130A8020230B900C830BA0085
:1004B0008C20B90B562AF029851E782A83160C1039
:1004C0008C108312A901A801A701B201B301831600
:1004D000091083120910831689108312891083165C
:1004E000091183120911A1208711B4018A01002882
:0404F0007429630008
:02400E00363F3B
:00000001FF
;PIC16F877A
;CRC=5C53  CREATED="14-ago-19 17:03"
